:020000040000FA
:040000004AEF05F0CE
:100800000041544F4D2046524F4D2048454C4C001E
:100810004C494B45202620464F4C4C4F57004C43EB
:10082000442049324320434F4E00504943313866FB
:10083000323535300000076E07C00EF0000E81EC37
:1008400005F04E0E066EEB0EE82EFED7062EFCD7F8
:1008500000F0030E74EC05F00D0E066EFC0EE82E93
:10086000FED7062EFCD7030E74EC05F00D0E066EB7
:10087000FC0EE82EFED7062EFCD7030E74EC05F016
:100880000D0E066EFC0EE82EFED7062EFCD7020ECD
:1008900074EC05F00D0E066EFC0EE82EFED7062E4B
:1008A000FCD7280E74EC05F0820E066EDE0EE82EE4
:1008B000FED7062EFCD70C0E74EC05F0820E066EE9
:1008C000DE0EE82EFED7062EFCD7010E74EC05F0E6
:1008D000820E066EDE0EE82EFED7062EFCD7060E22
:1008E00074EC05F0820E066EDE0EE82EFED7062EA4
:1008F000FCD712008EEC05F04E0E1BEC04F00F0E30
:10090000C112700ED312D350FC0B0209D36E936840
:10091000000E066E000EC7EC04F0010E066E080E07
:10092000076EFCEC04F0010E066E000EC7EC04F03E
:10093000100E066E080E076EFCEC04F01F0E0D6E16
:10094000710E0C6E1E0EE82EFED70C2EFCD70D2E4F
:10095000FAD700D0010E74EC05F0000E066E000E02
:10096000C7EC04F01E0E066E080E076EFCEC04F0D9
:10097000010E066E000EC7EC04F02A0E066E080E7D
:10098000076EFCEC04F0ADEF04F000EF00F0096E30
:10099000E2EF04F00950C00F74EC05F0FBEF04F037
:1009A0000950940F74EC05F0FBEF04F00950D40FDC
:1009B00074EC05F0FBEF04F00950800F74EC05F0C7
:1009C000FBEF04F00650076E086A0850000AD8B41E
:1009D000ECEF04F0DCEF04F00750010AD8B4CAEFE2
:1009E00004F0030AD8B4D0EF04F0010AD8B4D6EF6B
:1009F00004F0DCEF04F01200000E0B6E000E0A6E25
:100A000012EF05F00A500624086E0B500720096EFD
:100A100008C0F6FF09C0F7FF0800F55067EC05F0C5
:100A20000A4A0B2A0A500624086E0B500720096E4A
:100A300008C0F6FF09C0F7FF0800F5500009D8A468
:100A400024EF05F026EF05F002EF05F01200C7B421
:100A50002CEF05F02EEF05F027EF05F0C5CF01F0E4
:100A60001F0E0116D8A437EF05F039EF05F027EF78
:100A700005F01200046E0F5004120450040981ECBA
:100A800005F00450FB0B81EC05F0210EE82EFED79B
:100A900000F012003E0EF66E0B0EF76E000EF86EB2
:100AA0000900F5CF10F00F6A000EF86E00017AEF22
:100AB00004F0026E27EC05F002C0C9FF9EA663EFAA
:100AC00005F065EF05F05EEF05F09E961200056EED
:100AD000010E0F6E0550F00B3AEC05F00538F00BE7
:100AE000F00B3AEC05F01200056E000E0F6E05508B
:100AF000F00B3AEC05F00538F00BF00B3AEC05F092
:100B00001200036E9BEC05F00E5059EC05F00350FB
:100B1000101059EC05F097EC05F01200280EC66E87
:100B2000000EC76E130EC86E93829380120027ECDE
:0F0B300005F0C584120027EC05F0C580120008FF
:020000040020DA
:08000000FFFFFFFFFFFFFFFF00
:020000040030CA
:0E000000000A1F1EFF8185FF0FC00FE00F409A
:00000001FF
