:020000040000FA
:040000007BEF3FF063
:107EE600010002000400080010002000400080008D
:107EF600E60EF66E7E0EF76E000EF86E00EE01F0E0
:107F060010EE10F00900F5CFEEFFE550E150FAE172
:107F160000018EEF3FF00F0EC112700ED312D35038
:107F2600FC0B0209D36E000E936E000E166E000E49
:107F3600156ED8901534D96E1634DA6E010ED92620
:107F4600000EDA22DF508A6E060E126E130E116EC6
:107F5600AE0EE82EFED7112EFCD7122EFAD7154AF2
:107F6600162A16BEC0EF3FF0165009E1080E155C42
:107F7600D8A0C0EF3FF0C2EF3FF09CEF3FF0000EFD
:107F86008A6E060E126E130E116EAE0EE82EFED718
:107F9600112EFCD7122EFAD7000E146E000E136E99
:107FA6008A68060E126E130E116EAE0EE82EFED7FE
:107FB600112EFCD7122EFAD7000E8A6E060E126EFE
:107FC600130E116EAE0EE82EFED7112EFCD7122E12
:107FD600FAD7134A142A14BEFAEF3FF0145009E1F7
:107FE6000A0E135CD8A0FAEF3FF0FCEF3FF0D3EF98
:0A7FF6003FF098EF3FF000EF00F0BD
:020000040020DA
:08000000FFFFFFFFFFFFFFFF00
:020000040030CA
:0E000000000A1F1EFF8185FF0FC00FE00F409A
:00000001FF
